:020000040001F9
:1040000010380020214201003342010035420100F6
:1040100000000000000000000000000000000000A0
:104020000000000000000000000000003742010016
:104030000000000000000000394201003B42010086
:104040003D4201003D4201005D4F01003D42010043
:104050003D42010000000000D97901002B48010019
:104060003D4201003D4201003D4201003D42010050
:104070003D4201003D4201003D4201003D42010040
:104080003D4201003B7101003D4201003D42010003
:104090005D7101003D420100CF7801003D42010009
:1040A0003D4201003D420100000000000000000010
:1040B0000000000000000000000000000000000000
:1040C00000F002F800F040F80CA030C808382418BE
:1040D0002D18A246671EAB4654465D46AC4201D140
:1040E00000F032F87E460F3E0FCCB6460126334232
:1040F00000D0FB1AA246AB46334318478C4A000057
:10410000AC4A0000103A02D378C878C1FAD85207F6
:1041100001D330C830C101D504680C60704700007D
:104120000023002400250026103A01D378C1FBD8D3
:10413000520700D330C100D50B6070471FB5C04691
:10414000C0461FBD10B510BD04F034FB1146FFF78B
:10415000F5FF00F004FF04F04CFB03B4FFF7F2FF9F
:1041600003BC04F07FFB0000401E00BF00BF00BF87
:1041700000BF00BF00BF00BF00BF00BF00BF00BF47
:1041800000BFF1D170470000401E00BF00BF00BF5C
:1041900000BF00BF00BF00BF00BF00BF00BF00BF27
:1041A00000BFF1D170470000401E00BF00BF00BF3C
:1041B00000BF00BF00BF00BF00BF00BF00BF00BF07
:1041C00000BFF1D170470000401E00BF00BF00BF1C
:1041D00000BF00BF00BF00BF00BF00BF00BF00BFE7
:1041E00000BFF1D17047000070B505460C46164679
:1041F00002E00FCC0FC5103E102EFAD2082E02D3CB
:1042000003CC03C5083E042E07D301CC01C5361FDD
:1042100003E021782970641C6D1C761EF9D270BDF4
:104220000A4802680F210A4302600948804709488A
:104230000047FEE7FEE7FEE7FEE7FEE7FEE70000D9
:1042400005480649064A074B704700002405004010
:104250000D430100C140010010280020103800204B
:104260001030002010300020324833490860704779
:104270003248008CC0B2012812D13048808C00072F
:10428000000F00280CD12D48806AF02108404028FA
:1042900006D12A48C06A0840002801D10120704791
:1042A0000020FCE72548008CC0B201282CD123480F
:1042B000808C0007000F002826D12048806AF0215A
:1042C0000840002806D11D48C06A0840002801D1D6
:1042D000012070471948806AF0210840102806D153
:1042E0001648C06A0840002801D10120F1E71348B0
:1042F000806AF0210840302806D11048C06A084082
:10430000002801D10120E4E70020E2E710B5FFF723
:10431000C9FF002805D00A480A494860C8130A495D
:104320008861FFF7A5FF002802D0012007498860B7
:1043300010BD00000024F40000200020C00F00F099
:10434000DFFF07C000050040006C00400006004091
:1043500030B508E093000524240707252D026419D1
:1043600085006351401C8842F4D930BD0F2000F015
:10437000BCFE00F0A7FE04460D462A462146FE4834
:10438000FFF7F4FFFEB5FD480078002804D103F0E4
:1043900008FDFA490870CEE000250020F7490870B2
:1043A000F74800210160694601A803F003FDF549C3
:1043B0000860F549F348006804F0A2FA7CD0F3499C
:1043C000F048006804F0C6FA074604F059F90446BC
:1043D000E12109018C4216D9ED480078012812D15B
:1043E000EB484078FF280ED0E9494878642103F073
:1043F000F0FF002803D1E6484078041903E0E448C0
:1044000040786438241A2002000EDD498870FE20AE
:10441000C870A6B20E70300A4870DD4800780128D6
:10442000CCD0DC48844207D9DA486530844203D2D4
:104430000120D949087014E0D6486430844203D979
:104440000220D54908700CE0D248FA38844208D2DC
:104450000020D1490870D1490860D1490860D1498C
:104460000860CD480078012805D1CC480068401C80
:10447000CA4908600AE0C8480078022806D100202E
:10448000C6490860C6490860C6490860C248007845
:1044900001284FD1C148006805280ED9BF480068DF
:1044A00064280AD2BE4800680019BD490860BD48AA
:1044B0000068401CBB4908603CE0B84800686428BC
:1044C00038D3B8480168B648006803F078FF05465D
:1044D000B048323085420ED90F200002854203D207
:1044E000AC483230281A00E028200546052D00D2BD
:1044F000002564350CE0EB200001854203D9A54876
:104500003230401B00E028200546052D00D2002552
:10451000E9B2012000F086FE01209D4908704D702F
:1045200000209E4908609E4908609E49086002205C
:104530009949087000BFFEBD30B585B014216846AA
:1045400003F03BFF03216846017000200190002129
:1045500068460172192149020182B421418273DF48
:10456000044600BF2546002D05D000BF8EA291490C
:104570002846FFF7FBFE00BF05B030BD70B598B010
:10458000052108917F21079100263C2109A803F00D
:1045900014FF89496846818001210181874903917F
:1045A0008549891F0182042101A80182744906916D
:1045B00002200990002108A84172012168468185E6
:1045C00008A90C9172484078FF2811D070484678AD
:1045D000642E09DD4078643841B207916846007F57
:1045E000404241B2079103E06948407840B20790E9
:1045F00007A80D9001A81690022010A908770021A5
:1046000009A802F04AF8044600BF2546002D05D04F
:1046100000BF65A26A492846FFF7A8FE00BF6948A7
:104620000078002804D1FFF787FF01206549087052
:1046300018B070BD70B50120634948601820634907
:104640004860002062490860012060490860072036
:1046500027DF044600BF2546002D06D000BF52A22A
:10466000FF21F3312846FFF781FE00BF0321072019
:1046700028DF044600BF2546002D06D000BF4AA211
:10468000FF21F6312846FFF771FE00BF072023DF28
:10469000044600BF2546002D06D000BF42A2FF21E0
:1046A000F9312846FFF762FE00BF00204849086044
:1046B00001204849086070BD10B5044603204649F2
:1046C0000969C140C907C90F002908D043480068DB
:1046D000401C4249086000204149086007E040480A
:1046E0000068401C3E49086000203C4908603B4887
:1046F0000068032805D90420384908600120394999
:104700000870374800684B21C900884217D9481CF7
:10471000334908600220334908701B491948006872
:1047200004F0EEF80BD030491648006804F06AF93E
:1047300005D200202A49086001202A4908702B4828
:104740000078002805D1124800F051FD01202749CA
:10475000087006212648007803F03BFE00295ED150
:104760002048007801284BD1FFF764FFFFF70AFECD
:104770002048007801283FE0EFBEADDE4420002055
:10478000402000202820002000007F430000C84275
:104790001C200020A60E000015200020182000205C
:1047A00020200020242000202E2E5C6D61696E2EBA
:1047B000630000002F0300000F18000034200020C9
:1047C0005C0400004520002000730040007500409C
:1047D00000710040007000400005005010200020D3
:1047E0000C2000201420002000000C421620002085
:1047F00008200020352000200ED1FFF7BFFE0BE07F
:10480000FE480078022807D1FD480078012800D131
:1048100074DF0020FA4908700020FA490870F9484E
:104820000078401CF749087010BD70B5F648006864
:10483000002834D00020F4490860F4488068C5B2EC
:104840000120F34948604B21090169430846FF21D3
:1048500003F0BFFD41004018FF300F3086B23046F4
:1048600000F04DFCEB4908700120EB490870E94865
:104870000178EA4801F045F80446002C0ED0082CD7
:104880000CD0E748844209D0E648844206D000BFF5
:10489000E54AFF21DB312046FFF768FD00BF70BD10
:1048A000F8B500BF0020E14B07220321009002F081
:1048B00059FC054600BF2E46002E05D000BFDA4A3F
:1048C000DB493046FFF752FD00BF00BFD94A012146
:1048D000D94802F0C2FC044600BF2546002D06D090
:1048E00000BFD14AD24908312846FFF73FFD00BF3B
:1048F000F8BD70B505460E4600240EE00121CF48F4
:104900002FDF0A21CD48007803F063FD30312955AF
:10491000962003F035FC601CC4B2B442EEDB0020EC
:10492000285570BD3EB500BF6846007801090901F1
:10493000491C009168460078F021884310300090AF
:1049400000BF0522BEA168467CDF044600BF2546A5
:10495000002D06D000BFB44A4721C9002846FFF702
:1049600005FD00BF002001900290FF2191316846B3
:1049700081804900C18000210181FF219131418165
:1049800001A87ADF044600BF2546002D06D000BFEF
:10499000A54AA74940312846FFF7E8FC00BF04209C
:1049A00077DF044600BF2546002D06D000BF9E4A93
:1049B0009F4943312846FFF7D9FC00BF3EBD30B5C3
:1049C00099B005210991A04903C9089107909F4812
:1049D000002101603C210AA803F0EFFC9C496846D5
:1049E0008180012101818B4903919949891F0182AD
:1049F000042101A801829549069102200A90012113
:104A000008A841736846018609A90D91022110A8E2
:104A1000818007A9129101A81790022118A801709E
:104A200000210AA801F039FE044600BF2546002DEA
:104A300006D000BF7C4A7E496C312846FFF796FCC1
:104A400000BF19B030BDF8B507460D4628680028EC
:104A500002D0012827D114E000220F2189047D48CB
:104A6000006802F041FC044600BF2646002E06D036
:104A700000BF6D4A5121C9003046FFF777FC00BFE7
:104A800012E07448006802F060FC044600BF26464D
:104A9000002E06D000BF644A654987313046FFF7D3
:104AA00065FC00BF00E000BF00BFF8BD30B585B0B9
:104AB0001421684603F081FC674800900121684694
:104AC00001710020029064216846017300BF407BA1
:104AD00001090901491C68464173407BF021884364
:104AE00010306946487300BF00BF6846807B0009EC
:104AF0000001401C88736846807BF0218843103099
:104B00006946887300BF00BF6846C07B000900018A
:104B1000C8736846C07BF02188436946C87300BFEC
:104B200000BF6846007C01090901491C6846017400
:104B3000007CF021884310306946087400BF374874
:104B400000F0BEFE044600BF2546002D06D000BF83
:104B5000354A3749A7312846FFF708FC00BF05B0A2
:104B600030BD704738B5FFF7A1FF002000903B48EB
:104B7000009069463A4800F008FD044600BF25460B
:104B8000002D06D000BF284A2949C4312846FFF726
:104B9000EDFB00BF38BD1E203249088008468078F2
:104BA00040084000401C88700846807802218843F5
:104BB0002C498870084680781C2188430C3029498C
:104BC000887008468078202188432649887007200D
:104BD000C87010200871704770B505462868002815
:104BE00049D13B212048008876DF044600BF264695
:104BF000002E3FD000BF0C4A0D4937E014200020A2
:104C00004520002008200020007100400075004071
:104C1000007000403420002035200020D8200020E3
:104C20000330000001340000A84701000C210020DF
:104C300006020000B946010038200020362000207E
:104C4000756E6F76610000002C8B01004020002003
:104C50000F1800003C200020474A0100634B010070
:104C6000F02000202C20002032200020E7313046A8
:104C7000FFF77CFB00BF70BD044600BFFB4A5F210D
:104C8000C9002046FFF772FB30B587B01C2168468B
:104C900003F093FB00200090052040040190801059
:104CA00002900321684601730021C1810174F0481C
:104CB0000590F0480690684602F033FC044600BFB9
:104CC0002546002D05D000BFE84AEB492846FFF7EE
:104CD0004DFB00BF07B030BD70B500220121C903F4
:104CE000E648006802F000FB044600BF2546002DA0
:104CF00006D000BFDD4AE0490C312846FFF736FBFD
:104D000000BF70BDF8B50546288814284ED006DCD3
:104D100010280BD0112813D0132872D11AE01728AD
:104D20003ED019286FD0522879D126E0092000F012
:104D3000DCF9082000F0DEF9A888D14908806FE08E
:104D4000092000F0D7F90020C043CD490880FFF7C3
:104D5000F3FB65E0CB4A0021C94800887FDF0446A9
:104D600000BF2746002F06D000BFC04AC2495331BA
:104D70003846FFF7FBFA00BF52E000221146C04858
:104D80000088A9DF044600BF2746002F06D000BFD9
:104D9000B64AB94958313846FFF7E8FA00BF3FE054
:104DA0003222A91DB84803F0A9FA39E0B64EB61D63
:104DB0003188E889814211D100223146B04800880B
:104DC00081DF044600BF2746002F06D000BFA74A58
:104DD000A94964313846FFF7C9FA11E000221146AB
:104DE000A748008881DF044600BF2746002F06D071
:104DF00000BF9E4AA0496A313846FFF7B7FA00BFA4
:104E00000EE00CE0FFE7A879002807D19F49087061
:104E10009F480078012801D1FFF7B0FB00E000BFF8
:104E200000BFF8BD10B50446204602F04EFC2146F6
:104E3000984800F048FC2046FFF764FF10BD10B50D
:104E40000446204600F007FF10BD70B500BF0023E8
:104E5000502291490E2002F0F2FC054600BF2E467A
:104E6000002E06D000BF814A8349B7313046FFF794
:104E70007DFA00BF00BF894802F017FD044600BF5D
:104E80002546002D06D000BF784A7B49BB31284615
:104E9000FFF76CFA00BF824802F010FD044600BF25
:104EA0002546002D06D000BF704A7349BF31284601
:104EB000FFF75CFA00BF70BD70B500BF794A0A21E8
:104EC000082001F033FC044600BF2546002D06D023
:104ED00000BF664A6849C7312846FFF747FA00BF56
:104EE00000BF70BD70B500BF6F49012002F0DCFD4E
:104EF000044600BF2546002D06D000BF5B4A5E4930
:104F0000EF312846FFF732FA00BF00BF70BD70478F
:104F100070B53DDF044600BF2546002D05D000BF1B
:104F2000524A62492846FFF721FA00BF70BD08B512
:104F300000201923122218210090132003F074F985
:104F400004205B4948600321022000F057F802204A
:104F500001218140574A116000BF08BD70470322FC
:104F600001210020FFF7F4F90321022000F0B3F83B
:104F70000021032000F0AFF8032207210420FFF7EF
:104F8000E7F903220F210820FFF7E2F90322172196
:104F90001020FFF7DDF903221B211820FFF7D8F9B5
:104FA00003221F211E20FFF7D3F94348002101608F
:104FB00042480160FFF774FCFFF747FFFFF77CFFF3
:104FC000FFF7B0FCFFF7CEFDFFF7E5FD00F0FDF8C1
:104FD000FFF782FE02F077FF002801D100BFFEE755
:104FE000002002F0D7FE0446002C01D100F06AF840
:104FF00000BF01F05DFCFFF78BFFFAE710B500285A
:1050000019DA2F4A03071B0F083B9B089B00D25855
:105010008307DC0EFF23A3409A438B071B0E8407F4
:10502000E40EA3401A43264B0407240F083CA408AF
:10503000A4001A5118E01F4A03231B02D218830848
:105040009B00D2588307DC0EFF23A3409A438B07B3
:105050001B0E8407E40EA3401A43164B03242402BC
:105060001B198408A4001A5110BD0000A8470100B4
:10507000D94B0100794C01000F03000038200020BB
:10508000322000202C200020DC230020452000209E
:1050900035200020D820002010240020254E0100BB
:1050A0003F4E010060240020102500202B0400004A
:1050B0000023004000E100E0402000201C200020F0
:1050C0001CED00E0BFF34F8F32483349C860BFF397
:1050D0004F8F00BFFEE710B58A0005231B0707248A
:1050E00024021B1984001A5110BD012181402B4A52
:1050F0009160704701218140284AD160704770B5A6
:1051000004462748844201DB642540E02448643893
:1051100084420BDD2249091B3A225143084664218F
:1051200003F057F96421081AC5B230E01D488442E3
:105130000CDD1B496439091B182251430846A02184
:1051400003F047F92A21081AC5B220E01648844224
:105150000CDD1449091B0C2251430846FF212D3157
:1051600003F037F91221081AC5B210E00F48844243
:105170000CDD0D49091B062251430846FF2155311C
:1051800003F027F90621081AC5B200E000252846D9
:1051900070BD00000400FA0500ED00E000050050BD
:1051A000B80B0000B40A00008809000034080000B1
:1051B00010B5029C022904D0032903D0042902D18E
:1051C00001E000E000BF00BF10BD1CB500F077FD9E
:1051D00004466421684681800421C1801B480090F8
:1051E0001B49684600F0A4FD044620461CBD38B5A6
:1051F0000546002304221649684600F0E4FE0446F2
:10520000002C04D104226946284603F077F8204692
:1052100038BD10B5FF2191310D4800F032FF044632
:10522000204610BD70B504460D46FFF7F2FF094851
:1052300004704570002007498870C870002304225C
:10524000034800F062FE0646304670BDB1510100D1
:105250004820002050200020F8B505460E460024C6
:1052600032782146641C6A5472782146641C6A5460
:1052700000BF022C01D1012000E000200746002FD2
:1052800005D100BF08A22021FFF770F800BF00BFC2
:105290002046F8BD70B504460D46284603F00CF8CC
:1052A0002080656070BD00002E2E5C2E2E5C2E2EA0
:1052B0005C2E2E5C2E2E5C536F757263655C626C87
:1052C000655C626C655F73657276696365735C6269
:1052D0006C655F7372765F636F6D6D6F6E2E6300CA
:1052E0008A88828270470022D2438282704770B5DA
:1052F00004460E46B51D2988208A814213D1288B89
:10530000022810D100BF00BFA97EEA7E120211431D
:105310000846C107C90F002902D00120A0750FE07F
:105320000020A0750CE02888A188884208D1A069D7
:10533000002805D02A8B29461A312046A3699847B0
:1053400070BD30B58FB004460D460020079000BFF9
:105350006846007F01090901491C68460177007F02
:10536000F021884310306946087700BF00BF6846C7
:10537000407F01090901491C68464177407FF021BF
:10538000884310306946487700BF6846807F062111
:105390008843811C684681771C2108A803F00DF81A
:1053A00008A8007810218843411808A8017000203F
:1053B00009900B900C9007A80D9000200E9021787A
:1053C00068468171032181800020009000BF6846FB
:1053D000007801090901491C684601700078F02134
:1053E000884310306946087000BF00BF68464078A7
:1053F00001090901491C684641704078F021884341
:1054000010306946487000BF68468078062188439E
:10541000811C68468170807808218843014668466F
:1054200081708078102188430146684681708078B9
:1054300041084900491C68468170142102A802F005
:10544000BCFF01A80290684603900121018200215F
:10545000418214218182608823460C3302AA08A964
:10546000A2DF0FB030BD30B58FB004460D461C2111
:1054700008A802F0A2FF08A8007808218843411874
:1054800008A80170007804218843011D08A8017054
:10549000002009900B900C900D900E90217868469A
:1054A0008172022101810020019000BF68460079CD
:1054B00001090901491C684601710079F0218843FE
:1054C00010306946087100BF00BF68464079010985
:1054D0000901491C684641714079F0218843103028
:1054E0006946487100BF6846807906218843811C5F
:1054F0006846817180790821884301466846817138
:10550000807910218843014668468171807941087D
:105510004900491C68468171142103A802F04DFF1F
:1055200002A8039001A8049001216846818200210D
:10553000C182142101836088231D03AA08A9A2DF68
:105540000FB030BD70B505460C46002D01D0002CC3
:1055500000D170BD2088102804D0112807D0502811
:105560000FD109E021462846FFF7BAFE0AE021469E
:105570002846FFF7B8FE05E021462846FFF7B7FEAC
:1055800000E000BF00BF00BFE3E770B586B004468F
:105590000E46334B0FCB01AD0FC5002C01D0002EB2
:1055A00002D10E2006B070BD0020C043A08230683A
:1055B000A0610020A075214601A862DF0546002DEC
:1055C00001D02846EEE72178684681750121818265
:1055D000A21C05A90120A0DF0546002D01D0284608
:1055E000E0E731462046FFF7ACFE0546002D01D02E
:1055F0002846D7E731462046FFF735FF0546002D00
:1056000001D02846CEE70020CCE737B584B0044669
:105610000D46002C02D10E2007B030BDA08A1149E2
:10562000884202D0A07D002801D10820F4E7684616
:10563000008B142801DD0720EEE700200090019088
:1056400002900390A18968460180039506A8029004
:10565000012168468170A08A6946A6DFDCE7000068
:10566000348B0100FFFF00008A88428270470022CD
:10567000D24342827047F8B504460E46207D00288A
:1056800020D0B51D2988608981421AD1288B022833
:1056900017D12068002814D000BF00BFA97EEA7E81
:1056A000120211430846C107C90F002902D0002089
:1056B000009001E001200090694620462268904752
:1056C00000BF00BFF8BD70B505460C462088102805
:1056D00004D0112807D050280FD109E021462846D0
:1056E000FFF7C2FF0AE021462846FFF7C0FF05E0AA
:1056F00021462846FFF7BFFF00E000BF00BF70BD96
:10570000F0B591B004460D46207D002819D0002048
:10571000099000BF08A8007901090901491C08A8DF
:1057200001710079F0218843103008A9087100BF89
:10573000697B08A84171807906218843801C08A9EB
:1057400088711C210AA802F038FE08A8007A0221FC
:105750008843811C08A80172007A10218843217DAA
:10576000002901D0012100E000210901102211408F
:10577000084308A9087200200B900D900E90207D20
:10578000002801D009A800E000200F900020109010
:1057900000BF0121684681737749818100BF0020E5
:1057A0000290A97B68460172E97B4172807A0621EA
:1057B0008843811C68468172807A082188430146AB
:1057C00068468172807A102188430146684681725A
:1057D000807A4108490068468172297B0191142131
:1057E00004A802F0EAFD03A8049002A80590012194
:1057F00068460183002141830121818301A808902B
:10580000A088A31D04AA0AA9A2DF0646002E02D082
:10581000304611B0F0BDA86800284DD000BF01216E
:10582000684681735549818100BF00200290287C21
:105830006946087200BF6846407A01090901684656
:105840004172407AF02188436946487200BF684639
:10585000807A06218843811C68468172807A0821FB
:105860008843014668468172807A10218843014648
:1058700068468172807A4108490068468172A96849
:10588000FFF7EAFC0746142104A802F096FD03A8DE
:10589000049002A805906846078300214183018B8C
:1058A00081830890E08822460E3204A9A3DF0646D1
:1058B000002E03D03046ACE70020E0810020A8E7AE
:1058C000F8B504460D46286820600020C043608279
:1058D00028792075FF20207400BF0121684681705F
:1058E0002749018000BF221D69460120A0DF06462E
:1058F000002E01D03046F8BD29462046FFF700FFB4
:10590000F9E733B585B004460025207C6946097E59
:1059100088422FD0012104916846007E2074E088DF
:1059200006AB04AA0021A4DF0546002D02D02846BC
:1059300007B030BD608A1349884219D0207D002805
:1059400016D0002000900190029003900121049154
:10595000E18868460180012181700021818004A8CE
:10596000029006A80390608A6946A6DF054600E01B
:10597000082500BF2846DBE7192A00000829000097
:105980000F180000FFFF0000002314214143FA4AD2
:1059900053541421414389184B800123142141435E
:1059A00089188B600023142141438918CB6014218E
:1059B000414389180B611421414389188B8070473A
:1059C00010B50020ED490880EB49091F08704870A8
:1059D0008870002403E02046FFF7D6FF641C1E2CCD
:1059E000F9D310BDF8B50F25E348001F0078142146
:1059F0004843E1494418E06800902078042813D116
:105A00008006006981B2009802F0D9FCDB49098860
:105A10004618304650DF0546002D04D1D74800888F
:105A2000401CD64908802BE02078022828D127691D
:105A3000D24800883F18A088D049098841180098AA
:105A4000081800906088CD490988461A0120800214
:105A5000864205D2B2083946009851DF054605E076
:105A6000FF2201323946009851DF0546002D06D14C
:105A7000C2480088012189024018C049088000BF3F
:105A8000002D03D10120BC49091F88702846F8BDAC
:105A9000FFB581B005460E46174600240420B649DE
:105AA000091F897800293CD1B349091F4978002989
:105AB00037D1B14A121F117011460978142251438F
:105AC000AD4A5554111F097814225143AA4A891826
:105AD0000F61111F097814225143A74A891873686E
:105AE0003268CB608A60A44A121F127814235A438A
:105AF000A14BD218049951801A1F127814235A43CB
:105B00009D4BD2180A999180191F4978491C1A1F78
:105B10005170FFF767FF002801D0112833D1002012
:105B200031E09549091F49781E292CD09249091F57
:105B30000978914A121F52788918CCB21E2C02DBC8
:105B400021461E39CCB2142161438B4A555414218D
:105B5000614389180F6114216143891873683268A1
:105B6000CB608A6014226243834BD218049951801F
:105B700014226243D2180A999180191F4978491C4E
:105B80001A1F5170002005B0F0BDF8B504467A48E0
:105B9000001F00781421484377490D5C081F0078E6
:105BA00014214843744940188068000174490E5814
:105BB000042D01D1002007E06F48001F0078142158
:105BC00048436D49401840886B49091F0090097887
:105BD00014225143684A89180B69111F097814224D
:105BE0005143654A89180846083022462946B0477D
:105BF000F8BD70B56048001F0078142148435E4925
:105C0000451868885D490988884212DC5A49091F8D
:105C10000878FFF7B9FE0020584908805648001F51
:105C20004078401E5449091F487008460078401CBF
:105C3000087000245048001F4078002809D0FFF762
:105C4000D1FE0446002C04D0112C02D02046FFF7D0
:105C50009CFF204670BD70B5054600264648001FD3
:105C6000807801282AD100204349091F8870022D1D
:105C700002D0032D1FD11AE03F48001F00781421E5
:105C800048433D4944182078042804D160883B49A2
:105C90000988884202DC3046FFF777FFFFF7A9FF4B
:105CA0000646002E02D03046FFF76FFF04E00D20BD
:105CB000FFF76BFF00E000BF00BF00BF70BD10B575
:105CC000FFF77EFE00202F4908802F484069401CC6
:105CD000002808D001221207126991B22A4A50699D
:105CE00002F06DFB02E0012000074069401E012127
:105CF0000907096989B248432449086000201F49FF
:105D0000088000BF0DE0002102011D4B99500201E7
:105D1000D21811810201D21891810201D218518149
:105D2000401C0028EFD0012019490870002010BD48
:105D3000F8B504460D4600BF15480078002801D18B
:105D40000820F8BD00BF002C01D10E20F9E7002D7E
:105D500001D10E20F5E72068002801D10E20F0E7E0
:105D6000A08801210907096989B2884202DCA0885C
:105D700010280FDA0720E4E7282500205E20002005
:105D80008027002054200020001000105820002000
:105D90005C200020E08800281DD0DE484069401CBF
:105DA000002808D001221207126991B2D94A50691D
:105DB00002F005FB02E0012000074069012109070C
:105DC000096989B24843E188A2885143D24A1268DE
:105DD0008918884201D20720B3E7D04800880128FB
:105DE00001D10420ADE7CD4800882860CA4800688A
:105DF0006860CA4909880901C94A89186868486001
:105E0000C6490988090120685050A088C3490988FB
:105E1000090189180881E088C049098809018918A1
:105E200048810027A688E1884E4300BF781C87B2CE
:105E300001200007006980B2B04205D201200007AE
:105E4000006980B2361A00E00026012000070069D0
:105E500080B2B14909684018AF49086001200007C5
:105E6000006980B2B042E1D9AC4800880001AC4979
:105E700040188781A9480088401CA8490880002054
:105E80005FE73CB5034600BFA6480078002801D173
:105E900008203CBD00BF002B01D10E20F9E7002AED
:105EA00001D10E20F5E71868002805D11868000117
:105EB0009B4C2058002801D10720EAE75C6818684D
:105EC00001940090019C18680001954D40190089CB
:105ED000484320180190009800012C460019408981
:105EE000009C2401641924896043009C24016419E6
:105EF00064680019019CA04201D80720C9E7019CF1
:105F00000098546010600020C3E7F8B504460D46C1
:105F100016461F4600BF83480078002801D108209C
:105F2000F8BD00BF002D01D10E20F9E7002C01D1F2
:105F30000E20F5E72068002805D120680001784987
:105F40000858002801D10720EAE7206800017449B9
:105F50004018408921680901714A89180989484314
:105F6000216809018918496840186168884201D888
:105F70000720D5E7002E06D02068000168494018A8
:105F80000089B04201DA0720CAE7F0192168090147
:105F9000634A89180989884201DD0720C0E728463D
:105FA00000F0AEF8002804D0E81900F0A9F80028A5
:105FB00001D11020B4E733462A462146022000973B
:105FC000FFF766FDACE7F8B507460C4615461E46DA
:105FD00000BF54480078002801D10820F8BD00BF58
:105FE000002C01D10E20F9E7002F01D10E20F5E79A
:105FF0002068002805D12068000149490858002878
:1060000001D10720EAE7206800014549401840898E
:1060100021680901424A8918098948432168090110
:106020008918496840186168884201D80720D5E777
:10603000002D06D020680001394940180089A84287
:1060400001DA0720CAE7A81921680901344A89182A
:106050000989884201DD0720C0E7384600F050F882
:10606000002804D0B81900F04BF8002801D1102006
:10607000B4E7606881192A46384602F03FF90020EB
:10608000ACE7F8B504460F4600BF26480078002864
:1060900001D10820F8BD00BF002C01D10E20F9E786
:1060A0002068002805D1206800011D4908580028F3
:1060B00001D10720EEE72068000119494018408906
:1060C00021680901164A891809894843216809018C
:1060D0008918496840186168884201D80720D9E7C3
:1060E000206800010E494018858900202B46024691
:1060F000214600900420FFF7CBFC06463046C9E756
:1061000001468807800F002801D101207047002038
:10611000FCE7000000100010582000205420002050
:10612000802700205C200020F7B584B004460F468D
:1061300006980678B01C1F2803DC2079801C1F28D5
:1061400002DD0C2007B0F0BD1F20801B801E85B231
:106150000295B11C781802A97DDF039003980028EE
:1061600001D00398EEE72068022808D1684600892C
:10617000A84204DC09200190684605890BE008204C
:1061800001902079002804D02079A84201DC2579EB
:1061900001E068460589681CC2B23046711CCEB267
:1061A0003A543046721CD6B2019939540698017897
:1061B000A81C0818C1B2069801700020C2E7F8B503
:1061C00005460C462078001D1F2801DD0C20F8BD77
:1061D000684679DF0646002E01D03046F7E70321F6
:1061E0002278501C2070A95419212278501C20704C
:1061F000A954207841196846008800F08BFA21786C
:10620000401820700020E2E7F8B505460F46164614
:106210001C466868002801D10720F8BD2078801C42
:10622000298840181F2801DD0C20F6E72878401C3B
:10623000C1B22278501C2070B1542178481C2070C3
:1062400077542A8823789819696802F057F82078DB
:106250002978401820700020DFE730B50346107819
:10626000C01C1F2801DD0C2030BD02241578681CDD
:1062700010704C550A241578681C10704C55157810
:10628000681C10704B550020EEE7FFB587B006463E
:106290001D46109C0020069020780590002747E0BE
:1062A000B900706841180A886846028149884181AE
:1062B000002203A902A864DF04900498002802D0F9
:1062C00004980BB0F0BD6846017B099881422ED13D
:1062D0000698002801D0002000E0022001902078DC
:1062E0006946097B4118019808181F2801DD0C2018
:1062F000E7E70698002809D12078401C2070227812
:10630000511C08982170A854012006902078421949
:1063100003A902A864DF04900498002801D004981F
:10632000CFE720786946097B4018207000BF7F1CAA
:106330003088B842B4DC0698002806D02178059849
:10634000401C081AC1B2059829540020B9E7FFB5CE
:1063500081B0074615460A9E009602223846049BE5
:106360000299FFF792FF0446002C02D0204605B0A8
:10637000F0BD0096102229463846049BFFF785FFA2
:106380000446002C01D02046F1E70020EFE701464B
:106390000888062808DB08881922D201904205DD0A
:1063A0000888E14A904201D00720704748880628B3
:1063B00008DB48881922D201904205DD4888DA4A74
:1063C000904201D00720F0E70888D74A904208D0D1
:1063D0004888904205D008884A88904201DD07200D
:1063E000E3E70020E1E7F8B506460D4614462078BD
:1063F000801D1F2801D90C20F8BD3046FFF7C7FFCC
:106400000746002F01D03846F6E705212278501CB8
:106410002070A95412212278501C2070A95422788F
:106420005119308800F076F92178401820702278D0
:106430005119708800F06EF9217840182070002002
:10644000DAE7F8B505460E4614462879801CC7B22F
:106450002078801CC0191F2801DD0C20F8BD781C95
:10646000C1B22278501C2070B154FF212278501CF8
:106470002070B15422789119288800F04BF92178C6
:1064800040182070A88800280EDDA868002801D1D7
:106490000720E3E7AA8823789819A96801F02EFF5E
:1064A00020782979401820700020D7E7FEB50746EC
:1064B0000E461446786B002801D10720FEBD00204F
:1064C000019032E0796B0C22019850430D18287925
:1064D000801CC0B200900098401CC1B22278501CB1
:1064E0002070B15416212278501C2070B1542278AB
:1064F0009119288800F00EF9217840182070A8889A
:1065000000280EDDA868002801D10720D6E7AA8858
:1065100023789819A96801F0F1FE207829794018AC
:1065200020700198401CC0B201903820C15D0198D4
:106530008142C7DC0020C1E7F8B504460F46164685
:106540000025002030702068002809D032463946E6
:106550002046FFF7E9FD0546002D01D02846F8BD8D
:106560006079002808D031463846FFF728FE0546F6
:10657000002D01D02846F2E7208900280BDD3346A4
:106580003A46012120460830FFF73EFE0546002D21
:1065900001D02846E3E7206900280BD000202169BC
:1065A000085632463946FFF758FE0546002D01D001
:1065B0002846D4E7A08A00280CDD3B4606220221AB
:1065C000204614300096FFF7C2FE0546002D01D08C
:1065D0002846C4E7A08B00280CDD3B460722032198
:1065E00020461C300096FFF7B2FE0546002D01D074
:1065F0002846B4E7A08C00280CDD3B461522142168
:10660000204624300096FFF7A2FE0546002D01D05B
:106610002846A4E7E06A002809D032463946E06AF5
:10662000FFF7E1FE0546002D01D0284697E7206BD5
:10663000002809D032463946206BFFF702FF054695
:10664000002D01D028468AE73820005D002809DDAA
:10665000324639462046FFF729FF0546002D01D076
:1066600028467CE728467AE701460889002808D0B2
:10667000C868002805D0C8680078042210400028A7
:1066800001D1072070470020FCE701460889002857
:1066900001DD072070470020FCE7F3B593B00D46FD
:1066A0000021129111911398002814D01398FFF72C
:1066B000DBFF0446002C02D0204615B0F0BD12AA24
:1066C00009A91398FFF738FF0446002C01D0204693
:1066D000F3E709AE00E00026002D13D02846FFF7AF
:1066E000D4FF0446002C01D02046E6E711AA01A9F8
:1066F0002846FFF721FF0446002C01D02046DCE7A6
:1067000001AF00E0002710A803793A46017A30462D
:1067100072DFD2E702460A70FF200002104000122A
:106720004870022070470000FFFF000030B50346AC
:10673000481CC004040C10468507AD0F002D01D184
:10674000012500E00025002D01D1072030BD7A4849
:1067500002601019794D28600020794D2870794D1C
:10676000287079480380794801800020EEE7F7B56A
:1067700084B00C467448008884426BDC744D002061
:10678000039000F0A4F802900298012814D003A806
:106790002BDF0746022F01D172B60CE000BF019734
:1067A000019F002F06D000BF6AA259210198FDF772
:1067B000DDFD00BF00BF00BF6148007800F0B1F808
:1067C00060490978884206D05D480578007800F075
:1067D000A8F85B4908700298012814D062B6684690
:1067E000007B2CDF0746022F0CD000BF0197019FD2
:1067F000002F06D000BF57A261210198FDF7B6FD1A
:1068000000BF00BF00BF5248854221D0E9004A4A7C
:106810000698126850500498002811D0002C0FDD03
:10682000494909886943454A1268881822460499EB
:1068300001F064FDE800404909684018848005E0E3
:106840000020E9003C4A126889188880002600E090
:10685000042600E00926304607B0F0BDF8B505462D
:106860000E461746052000903548007835490978CE
:1068700088421BD033480478007800F052F8314940
:1068800008703148008860432C4909684018286026
:10689000E00029490968401880883080E0002649D6
:1068A0000968085838600020009000BF0098F8BDC3
:1068B0000EB504E068468188009A029890476A46BF
:1068C00001A902A8FFF7CAFF0028F3D00EBD10B53A
:1068D0002D484068C105C90D002920D00A46103A4C
:1068E000104600280DDA284B1C330407240F083CFF
:1068F000A408A4001B598407E40EE3401B069B0F69
:106900000BE0224B032424021B198408A4001B590A
:106910008407E40EE3401B069B0FD8B210BD042091
:10692000FCE7014609480088814201DA481C00E082
:106930000020C0B2704700006020002064200020CA
:1069400069200020682000206A2000206C200020A0
:10695000FFFF00002E2E5C2E2E5C2E2E5C2E2E5C59
:106960002E2E5C536F757263655C6170705F636F30
:106970006D6D6F6E5C6170705F7363686564756C7C
:1069800065722E630000000000ED00E000E100E011
:1069900010B5002819DAFA4A03071B0F083B9B08B9
:1069A0009B00D2588307DC0EFF23A3409A438B073A
:1069B0001B0E8407E40EA3401A43F14B0407240F77
:1069C000083CA408A4001A5118E0EE4A03231B0255
:1069D000D21883089B00D2588307DC0EFF23A34004
:1069E0009A438B071B0E8407E40EA3401A43E54B22
:1069F000032424021B198408A4001A5110BD10B5E9
:106A00000446E148846003211120FFF7C1FF10BD57
:106A100010B501200004DD494860DC494039486078
:106A2000112000F0DDFC112000F0CCFC0120D84941
:106A300008602F20FDF798FB10BD10B51120012133
:106A40008140D04A8032116000BF01200004CF494C
:106A50008860CE49403988600120CD4948602F20A8
:106A6000FDF782FB10BDF0B5024628205043C94B0C
:106A70001B68C118C8480068401C002802D1C648DD
:106A8000026059E0C4488B68006828246043C14C08
:106A9000246800198068834217D8BF4800682823FB
:106AA0005843BC4B1B68C01880688B68C31ABA482F
:106AB000006828246043B74C246800198360B648F6
:106AC00000684862B448026036E08B68B24D2C68BA
:106AD00028680DE028254543AE4E3668AD19AD68EF
:106AE0005B1B044628254543AA4E3668AD19686AE3
:106AF000451C002D07D028254543A64E3668AD1904
:106B0000AD689D42E6D3451C002D0CD02825454399
:106B1000A04E3668AD19AD68EE1A282545439D4F45
:106B20003F68ED19AE608B60486228256543994E39
:106B30003668AD196A6200BFF0BD70B50246964C6A
:106B40002168084609E0904200D109E00146282466
:106B50004443904D2D686419606A441C002CF2D1A6
:106B600000BF441C002C00D170BD814209D18A4C69
:106B7000246828256C43874D2D686419646A864D06
:106B80002C6028244443834D2D686419A36828246D
:106B90004443804D2D686419656A28244C437D4E1A
:106BA0003668A419656228244C437A4D2D6864190F
:106BB000606A441C002C0CD028244443754D2D6879
:106BC0006419A468E51828244443724E3668A41951
:106BD000A56000BFC8E710B5112000F0FAFB10BD9A
:106BE00010B5142000F0F5FB10BD70B504466B48DD
:106BF0000068002813D0694A216AE069126890474A
:106C0000054600BF2E46002E07D000BF64A2FF211C
:106C100055313046FDF7AAFB00BF00BF02E0E16935
:106C2000206A884770BDF8B55B480068401C0028A2
:106C30003AD0002700F006FC04466548016820466B
:106C400000F003FC06465448056811E0282068431C
:106C5000504909684418A068B04200D90BE0A06808
:106C6000361AA068C719656A2046FFF7BEFF00BF45
:106C7000681C0028EAD100BF5648007856490978B8
:106C8000884209D154480078401CC0B2524908706B
:106C9000022801D1002008704F48007880004F4939
:106CA0000F50FFF79DFF00BFF8BD0146494800782F
:106CB000494A127890421DD046480078401C454A07
:106CC000107010460078022801D100201070414851
:106CD00000788000414A105808603D4A08681268F0
:106CE00080183B4A1060104600680002000A1060DD
:106CF000012070470020086000BFFAE7FEB5264873
:106D00000068019036480078009074E00098C00058
:106D1000344909684418257869E018206843616897
:106D20000F18681CC5B2A078A84200D100253868A9
:106D3000022802D0032857D10EE028217868484362
:106D4000144909684618307E002804D07868FFF797
:106D5000F4FE0020307648E00CE00F490968282254
:106D600051430C4A12688818002101760A4A416A88
:106D7000116000BF08480068401C0028EDD134E0D5
:106D80001CED00E000E100E000150140401301406F
:106D9000001001407420002080200020942000205A
:106DA0002E2E5C2E2E5C2E2E5C2E2E5C2E2E5C53F8
:106DB0006F757263655C6170705F636F6D6D6F6E30
:106DC0005C6170705F74696D65722E630000000015
:106DD0008420002090200020912000208820002086
:106DE000782000207C20002000BF00BF00BF60781A
:106DF000A84292D100BF0098411EC9B2009100285C
:106E000084D1FE4801680198814201D00120FEBD75
:106E10000020FCE7F0B50346002426E0F74E366874
:106E200028277E43F64F3F68F01986689E4203D9B3
:106E30008668F61A86601DE086689B1B8668341992
:106E4000002686600676ED4E3568EC4F466A3E6059
:106E50004669002E08D00E193602360AC660466909
:106E6000066116684662156000BFE4480068401C71
:106E70000028D3D100BFF0BDFEB50746DF4800684B
:106E80000290E048007801906BE00198C000DE4974
:106E9000096845185DE0781C002807D03E46282088
:106EA0007043D74909684418676A23E02978182392
:106EB00059436A6850182978491C29702978AA789A
:106EC000914201D100212970466828217143CC4AA2
:106ED00012688C180168012902D1217E002900D096
:106EE00037E08168E160C1682161016961614169E0
:106EF000216200BFC549E0680968401A0002000A23
:106F0000C349884208D2C149E068096800F09DFA87
:106F100021694018A06011E0BC48E168006800F0F9
:106F200094FA009021690098814204D9216900985F
:106F3000081AA06001E00020A06000BF0020E0600F
:106F4000206101202076801E60623046FFF78BFDB5
:106F500000BF781C00289ED12878697888429AD191
:106F600000BF0198411EC9B2019100288DD1A348EC
:106F700001680298814201D00120FEBD0020FCE79B
:106F8000FEB505469D480068401C002835D09B484A
:106F90000068282148439A4909684018866800F02B
:106FA00051FA0290994804682146029800F04DFA7F
:106FB000C01C0190681C002801D1FFF729FD019831
:106FC000B04201D2304600E0019804192402240A9C
:106FD00020469049086000BF00F034FA0090029902
:106FE000009800F032FAC71C2046029900F02DFAF2
:106FF000874201D9FFF7EFFD01E0FFF71EFDFEBD5F
:10700000FEB50020C0430190804804687B480768B3
:107010006846FFF74AFE0546FFF770FE0646002D5C
:1070200005D001AA21460098FFF7F4FE0126019839
:10703000FFF722FF002800D00126002E02D038469C
:10704000FFF79EFFFEBD4170704770B502460B46CC
:107050005078411C9078884200D1002110788842F5
:1070600001D1002070BD1960507818267043556812
:107070002C182046F6E7FFB581B005460E461746A8
:10708000E900614A126888186946FFF7DEFF044686
:10709000002C02D1042005B0F0BD01202060666004
:1070A00000F0D0F9A060E760049820610A98606160
:1070B000E900554A126888180099FFF7C4FFFFF7E6
:1070C0008FFD0020E7E7F8B504460E46E1004E4A82
:1070D000126888186946FFF7B8FF0546002D01D1F0
:1070E0000420F8BD022028606E60E100464A126864
:1070F00088180099FFF7A7FFFFF772FD0020F0E75F
:1071000038B50446E100404A126888186946FFF71E
:107110009CFF0546002D01D1042038BD03202860C6
:10712000001F6860E100384A126888180099FFF76C
:107130008AFFFFF755FD0020EFE710B50020364924
:1071400008600021344841608160C16000203249FC
:10715000403908604860FFF766FD10BD10B5FFF7C5
:107160004FFF10BDFFB581B00E4617461C462046A6
:107170008107890F002901D1012100E000210029A8
:1071800002D1072005B0F0BD002C01D10720F9E79E
:10719000FFF753FC21490A980860214806701848F7
:1071A000046000250CE0002128206843144A12687E
:1071B000115028206843124A1268801801766D1C0D
:1071C000B542F0DB28207043041903200D490870F4
:1071D0000D480460183400250CE0E9000A4A1268E2
:1071E000881800210170417087704460182179432C
:1071F0000C196D1C032DF0DB002013E08020002013
:1072000074200020782000207C2000208420002092
:10721000FFFF7F00401501404011014094200020F5
:1072200070200020C0438B49086000208A49087004
:107230008A490870142000F0D3F803211420FFF7C6
:10724000A7FB142000F0BEF80198FFF7D8FB00F070
:10725000F9F883490860002094E770B503460C46AE
:1072600080480068002801D1082070BD002A01D1A3
:107270000720FAE7002B01D10720F6E700211CE0E8
:1072800028204843774D2D682858002814D101251F
:1072900028204843734E3668355028204843714DA6
:1072A0002D6840194460282048436E4D2D684019D0
:1072B000C26119600020D8E7491C6B480078814200
:1072C000DEDB0420D1E710B500F092F8012802D0EF
:1072D000032804D101E0002403E0012401E002249A
:1072E00000BF00BF204610BDFEB504460D46164641
:1072F0005C480068002801D10820FEBD5A4800788B
:10730000844201D2052D01D20720F6E728206043F0
:10731000544909680858012801D00820EDE72820C1
:1073200060435049096840184068012801D1284647
:1073300000E000200746FFF7C6FF3B462A462146ED
:1073400000960190FFF797FED7E770B504464548D1
:107350000068002801D1082070BD434800788442AD
:1073600001D30720F8E7282060433E490968085800
:10737000012801D00820EFE7FFF7A5FF05462146C9
:10738000FFF7A1FEE8E710B536480068002801D1F4
:10739000082010BDFFF797FF0446FFF7B1FEF8E79E
:1073A00010B5044600F04EF82060002010BD70B506
:1073B00005460E4614463146284600F046F8206041
:1073C000002070BDC206D20E01219140274A1160F3
:1073D0007047C206D20E01219140254A11607047C4
:1073E000C206D20E01219140214A803211607047BD
:1073F00010B520484068C105C90D002920D00A46B3
:10740000103A104600280DDA1A4B1C330407240FDB
:10741000083CA408A4001B598407E40EE3401B06A3
:107420009B0F0BE0114B032424021B198408A400BA
:107430001B598407E40EE3401B069B0FD8B210BD16
:107440000420FCE70C48406870470246501A0002CE
:10745000000A70478020002090200020912000200A
:1074600084200020742000207020002000E100E033
:1074700000E200E000ED00E0001501400146488810
:10748000B74A1288904206DB4888B54A5288904233
:1074900001DC012070470020FCE738B50546B14803
:1074A0000088B14988423BD0B0480078401CAF49C1
:1074B0000870AF48007B097888420FDBA849A948CB
:1074C000008875DF0446002C07D0A9488069002891
:1074D00003D0A74881692046884721E00020A349BE
:1074E0000870A348007C00280FD03B219D480088ED
:1074F00076DF0446002C07D09D488069002803D021
:107500009B4881692046884700BF99484069002808
:1075100006D000200090964841696846884700BF21
:1075200038BD70B505461C2229469148FCF75CFE23
:10753000002090490870286800280BD0082288484D
:10754000296800F0DBFE86487ADF0446002C08D06C
:10755000204670BD82487BDF0446002C01D02046C7
:10756000F7E70020C0437F49088000207F4908706A
:10757000814A00218148FFF770FEEAE710B57F4895
:107580000068FFF7E2FE10BD38B57D48FFF776FFD3
:10759000002829D17748007800280AD0744840692B
:1075A000002820D000200090714841696846884733
:1075B00019E06E480078002802D16D48456801E066
:1075C0006B488568002229466C480068FFF78CFEEE
:1075D0000446002C07D066488069002803D0644820
:1075E0008169204688470AE061484069002806D042
:1075F000012000905E4841696846884700BF00202E
:107600005C49087038BD10B50446A088554908800B
:10761000082221460E315A4800F070FE00205349DE
:1076200008705348C089002801D1FFF7ADFF10BD95
:1076300070B505460020C0434A49088000204B49E8
:1076400008704E480068FFF780FE0446002C07D003
:1076500047488069002803D045488169204688470B
:1076600070BD70B50546AC1D20884149C989884266
:1076700020D1208B02281DD100BF00BFA17EE27E59
:10768000120211430846C107C90F002902D0FFF7B3
:107690007BFF0FE039480068FFF757FE0646002ED3
:1076A00007D033488069002803D0314881693046CB
:1076B000884700BF70BD10B504460822A11D3048A0
:1076C00000F01CFEFFF760FF10BD10B504462088D7
:1076D000102806D0112808D012280ED0502810D11A
:1076E00007E02046FFF78FFF0CE02046FFF7A0FFE2
:1076F00008E02046FFF7B5FF04E02046FFF7DBFF78
:1077000000E000BF00BF10BD38B504460822214686
:10771000134800F0F3FD12487ADF0546002D1CD116
:107720001748FFF7ABFE00280BD101201149087064
:107730000B490C48008875DF054601200B4908708D
:107740000BE00B484069002806D001200090084853
:1077500041696846884700BF0025284638BD0000BB
:1077600098200020A2200020FFFF0000A020002081
:1077700090270020B02000209B740100AC20002046
:10778000A420002070B506460C4615462946204622
:10779000FCF7F1FD70BDF8B55A480078002800D11B
:1077A000F8BD59480068002801D1012000E0002000
:1077B000054656480068002801D1012000E000205D
:1077C000064600BF002D14D168464EDF0446052C46
:1077D00001D101250CE0002C06D000BF4CA269218C
:1077E0002046FCF7C3FD03E0474900980968884735
:1077F00000BF002E1AD154480088009069465348B3
:10780000006860DF0446052C01D101260DE0002C44
:1078100006D000BF3EA280212046FCF7A7FD04E071
:107820004A48006839490968884700BF002D02D0DE
:10783000002E00D000E0C5E700BF00BFB0E7FFB5F5
:1078400081B00C4616461F46002C02D1072005B019
:10785000F0BD20468107890F002901D1012100E0F8
:107860000021002901D10720F1E73848046036489B
:107870000680374807603749019810DF0546002D1C
:1078800001D02846E3E701201E490870162023DFB7
:10789000DDE710B511DF0446002C01D0012000E027
:1078A000002018490870204610BD0146002901D16A
:1078B0000E207047154801600020FAE701460029B4
:1078C00001D10E207047104801600020FAE770B522
:1078D0001F480068002811D01D48006880470446F2
:1078E00000BF2546002D07D000BF09A2FF2133317C
:1078F0002846FCF73BFD00BF00BF01E0FFF74BFF50
:1079000070BD0000BE200020C4200020C020002048
:107910002E2E5C2E2E5C2E2E5C2E2E5C2E2E5C537C
:107920006F757263655C73645F636F6D6D6F6E5CC2
:10793000736F66746465766963655F68616E646CB5
:1079400065722E6300000000BC200020B8200020DB
:10795000B420002085770100F0B502460C460020D7
:1079600037E001238340194623460B40002B2FD0DC
:10797000D5680D40002D05D101235B04D5680D436A
:10798000D56004E003231B04D5688D43D56005252D
:107990002D0707263602AD198600AD590326360499
:1079A000B5430526360707273F02F6198700F5512C
:1079B00005252D0707263602AD198600AD591D4352
:1079C0000526360707273F02F6198700F55100BF45
:1079D000401C2028C5D3F0BDFEB5E4480669002050
:1079E000E349C863002529E014206843E149096898
:1079F00044180120A840E0490968084000281BD02D
:107A0000E068C04370402168084007463946204678
:107A1000FFF7A2FFA068B043384000906068304094
:107A200038400190009901980843002803D022694A
:107A300000990198904700BF681CC5B2CF480078F4
:107A40008542D1DBFEBD10B50146002029E014229D
:107A50004A43C84B1B689A58012383401A40002AA6
:107A60001ED00522120707231B02D2188300D2580A
:107A700003231B049A4305231B07072424021B1915
:107A800084001A510522120707231B02D218830013
:107A9000D25805231B07072424021B1984001A51FE
:107AA000401C2028D3D310BD70B505460C46002CD1
:107AB00001D1072070BD20468107890F002901D11F
:107AC000012100E00021002901D10720F2E7A948A7
:107AD0000460AB4805700020A8490870A6490860FA
:107AE000A7480078142250430146A248006800F0DD
:107AF00064FC0020C043A349886006200121814026
:107B0000A14A116000BF012100F0F9F8062001210F
:107B100081409E4A116000BF0020CBE7F8B50446C3
:107B20000D4616461F4693480068002801D10820DC
:107B3000F8BD002F01D10720FAE79048007890495E
:107B40000978884201DB0420F2E7284630438B495C
:107B5000097814225143874A1268505087480078A8
:107B600014214843834909684018456083480078D8
:107B7000142148437F490968401886607F4800788F
:107B8000142148437B490968401807617B48007805
:107B900020707A480078401C784908702078FFF7F8
:107BA00052FF0020C4E7F0B5024672480068002882
:107BB00001D10820F0BD71480078824201DB072026
:107BC000F8E700206A4BD863684804696A4800688F
:107BD000002802D158066B4B586001209040664B3C
:107BE0001B681843644B1860002314205043614DF8
:107BF0002D684019C360002142E001238B401846E4
:107C0000142353435B4D2D68EB580340002B36D0B3
:107C100025460540002D02D003231B040EE001235E
:107C20005B0414255543534E3668AD19ED68054382
:107C3000142656434F4F3F68F619F56005252D076A
:107C400007263602AD198E00AD5903263604B5431A
:107C50000526360707273F02F6198F00F55105253F
:107C60002D0707263602AD198E00AD591D43052696
:107C7000360707273F02F6198F00F55100BF491C50
:107C80002029BAD3002095E710B50446394800688A
:107C9000002801D1082010BD38480078844201DB5B
:107CA0000720F8E72046FFF7CEFE0120A04032492A
:107CB00009688143304801600068002803D1012031
:107CC000C007304988600020E5E710B50246294822
:107CD0000068002801D1082010BD284800788242A1
:107CE00001DB0720F8E714205043224C24680319D5
:107CF0001E4800691C68204008600020ECE710B5B1
:107D0000002819DA224A03071B0F083B9B089B0037
:107D1000D2588307DC0EFF23A3409A438B071B0E28
:107D20008407E40EA3401A43194B0407240F083CB0
:107D3000A408A4001A5118E0144A03231B02D21805
:107D400083089B00D2588307DC0EFF23A3409A438D
:107D50008B071B0E8407E40EA3401A430B4B03242E
:107D600024021B198408A4001A5110BD00050050FC
:107D700040610040D0200020C8200020CD200020FD
:107D8000CC2000200063004080E200E000E100E041
:107D90001CED00E0014601204A009032204B1A7091
:107DA000704710B501231A461E491D48007800F09F
:107DB000A3F910BDFEB504460D461B4E0027002357
:107DC00001221A491648007800F096F9002825D0BB
:107DD000134909780122114308461346022201A9DA
:107DE00000F08AF9002818D06946087940B220705E
:107DF000487940B22870097909026A4652791143DC
:107E0000084600F079FC06460949304600F088FB38
:107E10000849009000F022FE064600BF3046FEBD35
:107E2000D4200020458B010000007F43448B0100DB
:107E30000000A0410000A04270B500BF0120400733
:107E4000CD49886000BF00BF4010886000BF04209B
:107E5000FCF79AF9C84800698000C00F002807D0D5
:107E6000C5480069C000C00F002801D0012428E0E7
:107E7000C1480069C000C00F002821D0002412258D
:107E800019E000BF01200007BB49C86000BF042003
:107E9000FCF77AF900BF01200007B749886000BFEE
:107EA0000420FCF771F9B44800698000C00F002875
:107EB00001D0012403E028466D1E0028E1D100E036
:107EC0000024204670BD10B500BFAC48052109074D
:107ED000072212028918486700BF00BF0521090761
:107EE0008918086700BF00BF01200007A249886009
:107EF00000BF00BF886100BF00BF4000886000BFB6
:107F000000BF886100BFFFF797FF10BD10B500BF2D
:107F1000012000079849886000BF0420FCF734F96D
:107F200000BF95480069C000C00F0028F9D00120AB
:107F300010BD10B500BF012040078F49C86000BFC9
:107F40000420FCF721F9FFF7E1FF002800D110BD64
:107F500000BF012040078849886000BF0420FCF76B
:107F600013F90120F3E770B50646012400BF60074E
:107F70008149886100BF80251FE000BF0120000704
:107F80007D49C86000BF0420FCF7FEF83046284059
:107F9000002805D000BF012040077749886005E030
:107FA00000BF012040077449C86000BFFFF7AEFF63
:107FB000002801D1002402E06D08002DDDD100BFB2
:107FC00000BF012000076C49C86000BF0420FCF717
:107FD000DBF800BF012040076749C86100BF0420EB
:107FE000FCF7D2F8FFF792FF044063480069400FA6
:107FF00001214840044000BF08075F49C86000BF36
:108000000420FCF7C1F800BF012040075A498861ED
:1080100000BF204670BDF8B505460E46002701207A
:10802000009000BF40075449C86100BF802418E099
:10803000FFF76CFF002801D1009014E04E48006962
:108040008000C00F002802D038462043074600BFFA
:10805000012000074849C86000BF0420FCF794F8DD
:108060006408002CE4D100BF00BF01204007424952
:10807000886100BF2F70002E02D000BFC86005E0ED
:1080800000BF012040073C49886000BF0420FCF786
:108090007BF8FFF73BFF002800D1009000BF0120D4
:1080A00000073549C86000BF0420FCF76DF8009850
:1080B000F8BD10B500BF012040072F49886000BF00
:1080C0000420FCF761F8FFF721FF002800D110BD64
:1080D00000BF012040072849C86000BF0420FCF70A
:1080E00053F800BF012000072349C86000BF0420E7
:1080F000FCF74AF80120EAE7FFB581B007460D46D4
:1081000016460124FFF7D5FF04403846FFF72BFF42
:108110000440F807C00F002816D00DE0002E05D14E
:1081200000212846FFF777FF044004E0012128469C
:10813000FFF771FF04406D1C3046711ECEB200285F
:108140000FD0002CEAD10CE004E02878FFF70BFFF9
:1081500004406D1C3046711ECEB2002801D0002CA8
:10816000F3D10498002801D1002C02D1FFF7E1FEE1
:108170000440204605B0F0BD000500500C0600008C
:1081800001B505E00098401E00900348FCF70CF88C
:1081900000980028F6D108BDE703000000BF424860
:1081A00080680128FBD100203F4988603F488069F2
:1081B000C0B2704770B504460D4601260AE020465D
:1081C000641E002804DB7D20C000FBF7FDFF01E0FA
:1081D000002603E0344880680128F0D100BF002C5D
:1081E00005DB0020304988603048806928703046BF
:1081F00070BD2E49C86100BF2B49C9690129FBD157
:108200000021294AD161704730B503460025284630
:108210006D1C1C5C05E02046FFF7EBFF28466D1C3B
:108220001C5C002CF7D130BDF8B507460C4615464E
:108230001E46204600F025F80021304600F02AF8BE
:108240001A48C4604661069800280DD0384600F0F0
:1082500018F80021284600F01DF8144805618760D1
:10826000012012494031C862114810494862042077
:10827000086001200F498860086000200A49886072
:10828000F8BD01210522120707231B02D218830023
:10829000D150704710B58A0005231B07072424021C
:1082A0001B1984001A5110BD002100400025004018
:1082B00000509D000020004030B5441C03E00178D0
:1082C000401C00290DD08107F9D10B4BDD0104C8FA
:1082D000D11A91432940FAD0001B0A0603D0C01ED0
:1082E00030BD001B30BD0A0401D0801E30BD090224
:1082F000FCD0401E30BD000001010101F8B5042A88
:108300002CD3830712D00B78491C0370401C521EDB
:1083100083070BD00B78491C0370401C521E830747
:1083200004D00B78491C0370401C521E8B079B0F16
:1083300005D0C91ADF002023DE1B08C90AE0FBF7BD
:1083400053FFF8BD1D4608C9FD401C46B4402C43F0
:1083500010C0121F042AF5D2F308C91A521EF0D415
:108360000B78491C0370401C521EEAD40B78491C40
:108370000370401C012AE4D409780170F8BD01E0C3
:1083800004C0091F0429FBD28B0701D50280801C81
:10839000C90700D00270704700290BD0C30702D074
:1083A0000270401C491E022904D3830702D50280B3
:1083B000801C891EE3E70022EEE70022DFE70022AF
:1083C00003098B422CD3030A8B4211D300239C4612
:1083D0004EE003460B433CD4002243088B4231D38A
:1083E00003098B421CD3030A8B4201D394463FE01E
:1083F000C3098B4201D3CB01C01A524183098B427E
:1084000001D38B01C01A524143098B4201D34B0166
:10841000C01A524103098B4201D30B01C01A5241C9
:10842000C3088B4201D3CB00C01A524183088B4250
:1084300001D38B00C01A524143088B4201D34B0039
:10844000C01A5241411A00D20146524110467047AB
:108450005DE0CA0F00D04942031000D340425340B0
:1084600000229C4603098B422DD3030A8B4212D370
:10847000FC22890112BA030A8B420CD389019211A2
:108480008B4208D3890192118B4204D389013AD0DF
:10849000921100E08909C3098B4201D3CB01C01AB4
:1084A000524183098B4201D38B01C01A52414309C7
:1084B0008B4201D34B01C01A524103098B4201D3B5
:1084C0000B01C01A5241C3088B4201D3CB00C01A22
:1084D000524183088B4201D38B00C01A5241D9D23A
:1084E00043088B4201D34B00C01A5241411A00D2BB
:1084F0000146634652415B10104601D34042002BB7
:1085000000D54942704763465B1000D3404201B535
:108510000020C046C04602BD70477047704700004B
:1085200070B5FF242404C609FF25264001352E43DB
:10853000C209CB090546224023404D40002A6BD09A
:10854000002B69D0A24267D0A34265D0002D00DA8B
:1085500032460124E4052143204309020002090AAE
:10856000D21A000A4B0C7F24E31A434C7C44E35C90
:108570007D242404121914145B00A218884201D32C
:10858000521C00E0400049420C465C4324115C430D
:10859000DB016415E318040A5C43C502200D0C4698
:1085A00044436419250A5D432303EC0C0D466543DF
:1085B00000030019EB184C42A34201D35B18401C86
:1085C000D4052018002B07D05B00C91804D3401C29
:1085D000002901D1400840003F2189048A4209D383
:1085E000002A08DC1106090F04D0032149074018AE
:1085F000C00FC00770BD01224100120689187F22FA
:1086000052069142F6D205214907C84201D5901081
:1086100070BDFF20C00570BD002D00DA3246174E38
:10862000A24207D2A34205D21802000E17D0E80FCB
:10863000C00770BDFF2443002406A34216D849009A
:10864000A14213D8A34201D1A1420FD0A14201D12E
:10865000002101E041004908D005084370BD100227
:10866000000E03D0FF200243D00570BD304670BD20
:1086700048404140484053E7D60500000000C07F15
:1086800001460002CA1504D00123DB071843002A63
:1086900009DB9E239A1A01D4D0407047FF2248007C
:1086A0001206904201D900207047C817C043704796
:1086B0001F22030C02D10F2200041CD0030E01D193
:1086C0000002083A030F01D10001121F830F01D1EC
:1086D0008000921E002801DB4000521ED205511876
:1086E000021251181922904004D3491C002801D1CC
:1086F0004908490008467047C10FC90700D04042E9
:10870000012292071143D3E701218907D0E7000036
:1087100010B5FF231B0644009C421DD84C009C4210
:108720001AD80346124A0B4307D4401A02D3EFF378
:10873000008010BDEFF3008010BD081A06D2EFF3E1
:10874000008001219043C907084302E0EFF3008055
:10875000904380F3008810BD0D231B041A4204D0FF
:108760001146002000F006F810BD00F01BF810BD07
:1087700000000090CA0211D54A03520F002A04D00B
:10878000C803C043012188407047054AEFF30081C8
:1087900008010009104380F30088704700207047EB
:1087A0000000003010B5024800F029F810BD0000AC
:1087B0000000C07F754600F051F8AE4605006946DE
:1087C0005346C008C000854618B020B5FBF738FDF9
:1087D00060BC00274908B6460026C0C5C0C5C0C554
:1087E000C0C5C0C5C0C5C0C5C0C5403D49008D4657
:1087F00070470446C046C0462046FBF7AEFC10B5A5
:108800000C461107090F092904D00A290AD00829A2
:108810000CD104E011460820FFF7ACFF06E051063A
:1088200006D501E0510601D50120C007214610BD43
:10883000D10607D501010909CC084907000E000639
:10884000044309E0410F20024907000A0143200EBA
:1088500000061D22D14101430846E7E70048704762
:10886000AC27002001491820ABBEFEE7260002001D
:108870007047000070B501250400ED074C4020D47E
:10888000441A01D2001B0919C60D4B00F2B2FF2A8F
:1088900029D01B0E2CD000020C02D31A2C43DC4032
:1088A0002843051910D2280A02D3401C6D0611D0A6
:1088B000761EF6058019FF2A00DA70BDC00DC005CE
:1088C00070BD694000F0D0F801200543C541521C3D
:1088D000761CE8E764089C40C90161408900E7D143
:1088E0000124A043E4E71B0E440200D0034870BDFE
:1088F000002AFCD1C00FC00770BD00BF0000C07FC0
:1089000001230200DB050A430DD4DA4203D49A4264
:1089100007D488427047D84214D4D94212D488422E
:10892000704780427047DA4203D59A42F9D58142B6
:1089300070475B004200DA4204D24A00DA4201D2B8
:108940008142704710B5024AFFF7E2FE10BD00BF3A
:108950000900120470B5420064414B005C41120EE4
:1089600039D01B0E38D0FF2A3CD0FF2B3AD0400222
:108970004902400A490A060045184E43000A090AFE
:10898000D2184843ED017F3A0104731A4019190CBB
:108990004318990F04D001215B0849075B1A521C48
:1089A000D80904D3401CF50301D19D0607D0FF2A46
:1089B00008D2D50506D0E4072043401970BD012533
:1089C000A843F4E7002A01DCE00770BD2402FF2081
:1089D0002043C00570BD1B0EFF2A03D0FF2B01D022
:1089E000E00770BDFF2645003606B54206D84D00AB
:1089F000B54203D8D218FF2A00D0E7E7004870BD7F
:108A00000000C07F01230A00DB0502430DD4DA42D7
:108A100003D49A4207D481427047D94214D4D84231
:108A200012D48142704789427047DA4203D59A4294
:108A3000F9D5884270475B004A00DA4204D242000E
:108A4000DA4201D2884270474840414010B5024A9C
:108A50004840FFF75DFE10BD0900160470B5012502
:108A60000400ED074C4022D4441A02D26C40001B93
:108A70000919C60D4B00F2B2FF2A4BD01B0E50D085
:108A800000020C02D31A2C43DC40A843051B05D579
:108A9000AD0019D36D08761E521E37D0F605280A90
:108AA00001D2801970BD70416D0603D070BD694060
:108AB000FFF7E6FE9C4009026140490001D0401EDC
:108AC00070BD0124A04370BD6D081DD001202B0C8A
:108AD00001D12D0410302B0E01D12D0208302B0FA7
:108AE00001D12D01001DAB0F01D1AD00801CEB0F9A
:108AF00001D16D00401C6D00361A121A680AF50586
:108B00004019012A02DB70BD002070BDC036300A5A
:108B1000C00770BD1B0E440201D1FF2B00D10248DB
:108B200070BD002AF0D070BD0000C07F0F1801009A
:108B3000091801009ECADC240EE5A9E093F3A3B551
:108B40000000406E00018182838485868788898B3E
:108B50008C8D8E8F919293959697999A9C9D9FA0BC
:108B6000A2A3A5A7A8AAACAEB0B2B3B5B7B9BCBE14
:108B7000C0C2C5C7C9CCCED1D4D7D9DCDFE2E6E9C3
:108B8000ECF0F3F7FAFE0000A88B010000200020B3
:108B9000D800000004410100808C0100D820002092
:108BA00038170000204101000024F40000000000FC
:108BB00000000000000000000000000000000000B5
:108BC00000000000000000000000000000000000A5
:108BD00000000000000000000000FFFF0000000097
:108BE0000000000000000000000000000000000085
:108BF0000000000000000000000000000000000075
:108C00000000000000000000000000000000000064
:108C10000000000000000000000000000000000054
:108C20000000000000000000000000000000000044
:108C30000000000000000000000000000000000034
:108C40000000000000000000000000000000000024
:108C50000000000000000000000000000000000014
:108C60000000000000000000000000000000000004
:108C700000000000000000000000000000000000F4
:04000005000140C1F5
:00000001FF
